{
  "_format": "hh-sol-artifact-1",
  "contractName": "ShieldedVault",
  "sourceName": "contracts/ShieldedVault.sol",
  "abi": [
    {
      "inputs": [
        {
          "internalType": "address",
          "name": "_riskOracleAddress",
          "type": "address"
        },
        {
          "internalType": "uint256",
          "name": "_maxRiskScore",
          "type": "uint256"
        },
        {
          "internalType": "string",
          "name": "_riskOracleUrl",
          "type": "string"
        }
      ],
      "stateMutability": "nonpayable",
      "type": "constructor"
    },
    {
      "inputs": [],
      "name": "EnforcedPause",
      "type": "error"
    },
    {
      "inputs": [],
      "name": "ExpectedPause",
      "type": "error"
    },
    {
      "inputs": [
        {
          "internalType": "address",
          "name": "owner",
          "type": "address"
        }
      ],
      "name": "OwnableInvalidOwner",
      "type": "error"
    },
    {
      "inputs": [
        {
          "internalType": "address",
          "name": "account",
          "type": "address"
        }
      ],
      "name": "OwnableUnauthorizedAccount",
      "type": "error"
    },
    {
      "anonymous": false,
      "inputs": [
        {
          "indexed": true,
          "internalType": "address",
          "name": "user",
          "type": "address"
        },
        {
          "indexed": false,
          "internalType": "uint256",
          "name": "amount",
          "type": "uint256"
        }
      ],
      "name": "Deposited",
      "type": "event"
    },
    {
      "anonymous": false,
      "inputs": [
        {
          "indexed": true,
          "internalType": "address",
          "name": "user",
          "type": "address"
        },
        {
          "indexed": false,
          "internalType": "uint256",
          "name": "amount",
          "type": "uint256"
        }
      ],
      "name": "EmergencyWithdrawn",
      "type": "event"
    },
    {
      "anonymous": false,
      "inputs": [
        {
          "indexed": false,
          "internalType": "uint256",
          "name": "oldScore",
          "type": "uint256"
        },
        {
          "indexed": false,
          "internalType": "uint256",
          "name": "newScore",
          "type": "uint256"
        }
      ],
      "name": "MaxRiskScoreUpdated",
      "type": "event"
    },
    {
      "anonymous": false,
      "inputs": [
        {
          "indexed": true,
          "internalType": "address",
          "name": "previousOwner",
          "type": "address"
        },
        {
          "indexed": true,
          "internalType": "address",
          "name": "newOwner",
          "type": "address"
        }
      ],
      "name": "OwnershipTransferred",
      "type": "event"
    },
    {
      "anonymous": false,
      "inputs": [
        {
          "indexed": false,
          "internalType": "address",
          "name": "account",
          "type": "address"
        }
      ],
      "name": "Paused",
      "type": "event"
    },
    {
      "anonymous": false,
      "inputs": [
        {
          "indexed": false,
          "internalType": "string",
          "name": "oldUrl",
          "type": "string"
        },
        {
          "indexed": false,
          "internalType": "string",
          "name": "newUrl",
          "type": "string"
        }
      ],
      "name": "RiskOracleUrlUpdated",
      "type": "event"
    },
    {
      "anonymous": false,
      "inputs": [
        {
          "indexed": true,
          "internalType": "address",
          "name": "user",
          "type": "address"
        },
        {
          "indexed": true,
          "internalType": "address",
          "name": "target",
          "type": "address"
        },
        {
          "indexed": false,
          "internalType": "uint256",
          "name": "riskScore",
          "type": "uint256"
        }
      ],
      "name": "TransactionAllowed",
      "type": "event"
    },
    {
      "anonymous": false,
      "inputs": [
        {
          "indexed": true,
          "internalType": "address",
          "name": "user",
          "type": "address"
        },
        {
          "indexed": true,
          "internalType": "address",
          "name": "target",
          "type": "address"
        },
        {
          "indexed": false,
          "internalType": "uint256",
          "name": "riskScore",
          "type": "uint256"
        },
        {
          "indexed": false,
          "internalType": "string",
          "name": "reason",
          "type": "string"
        }
      ],
      "name": "TransactionBlocked",
      "type": "event"
    },
    {
      "anonymous": false,
      "inputs": [
        {
          "indexed": false,
          "internalType": "address",
          "name": "account",
          "type": "address"
        }
      ],
      "name": "Unpaused",
      "type": "event"
    },
    {
      "anonymous": false,
      "inputs": [
        {
          "indexed": true,
          "internalType": "address",
          "name": "user",
          "type": "address"
        },
        {
          "indexed": false,
          "internalType": "uint256",
          "name": "amount",
          "type": "uint256"
        }
      ],
      "name": "Withdrawn",
      "type": "event"
    },
    {
      "inputs": [
        {
          "internalType": "address",
          "name": "",
          "type": "address"
        }
      ],
      "name": "balances",
      "outputs": [
        {
          "internalType": "uint256",
          "name": "",
          "type": "uint256"
        }
      ],
      "stateMutability": "view",
      "type": "function"
    },
    {
      "inputs": [
        {
          "internalType": "uint256",
          "name": "riskScore",
          "type": "uint256"
        }
      ],
      "name": "checkRiskScore",
      "outputs": [
        {
          "internalType": "bool",
          "name": "",
          "type": "bool"
        }
      ],
      "stateMutability": "view",
      "type": "function"
    },
    {
      "inputs": [],
      "name": "deposit",
      "outputs": [],
      "stateMutability": "payable",
      "type": "function"
    },
    {
      "inputs": [
        {
          "internalType": "address",
          "name": "user",
          "type": "address"
        }
      ],
      "name": "emergencyWithdraw",
      "outputs": [],
      "stateMutability": "nonpayable",
      "type": "function"
    },
    {
      "inputs": [
        {
          "internalType": "address",
          "name": "target",
          "type": "address"
        },
        {
          "internalType": "bytes",
          "name": "callData",
          "type": "bytes"
        },
        {
          "internalType": "uint256",
          "name": "value",
          "type": "uint256"
        },
        {
          "internalType": "uint256",
          "name": "riskScore",
          "type": "uint256"
        },
        {
          "internalType": "bytes",
          "name": "proof",
          "type": "bytes"
        }
      ],
      "name": "executeWithRiskCheck",
      "outputs": [
        {
          "internalType": "bool",
          "name": "",
          "type": "bool"
        }
      ],
      "stateMutability": "payable",
      "type": "function"
    },
    {
      "inputs": [],
      "name": "maxRiskScore",
      "outputs": [
        {
          "internalType": "uint256",
          "name": "",
          "type": "uint256"
        }
      ],
      "stateMutability": "view",
      "type": "function"
    },
    {
      "inputs": [],
      "name": "owner",
      "outputs": [
        {
          "internalType": "address",
          "name": "",
          "type": "address"
        }
      ],
      "stateMutability": "view",
      "type": "function"
    },
    {
      "inputs": [],
      "name": "pause",
      "outputs": [],
      "stateMutability": "nonpayable",
      "type": "function"
    },
    {
      "inputs": [],
      "name": "paused",
      "outputs": [
        {
          "internalType": "bool",
          "name": "",
          "type": "bool"
        }
      ],
      "stateMutability": "view",
      "type": "function"
    },
    {
      "inputs": [],
      "name": "renounceOwnership",
      "outputs": [],
      "stateMutability": "nonpayable",
      "type": "function"
    },
    {
      "inputs": [],
      "name": "riskOracleAddress",
      "outputs": [
        {
          "internalType": "address",
          "name": "",
          "type": "address"
        }
      ],
      "stateMutability": "view",
      "type": "function"
    },
    {
      "inputs": [],
      "name": "riskOracleUrl",
      "outputs": [
        {
          "internalType": "string",
          "name": "",
          "type": "string"
        }
      ],
      "stateMutability": "view",
      "type": "function"
    },
    {
      "inputs": [
        {
          "internalType": "uint256",
          "name": "_newMaxRiskScore",
          "type": "uint256"
        }
      ],
      "name": "setMaxRiskScore",
      "outputs": [],
      "stateMutability": "nonpayable",
      "type": "function"
    },
    {
      "inputs": [
        {
          "internalType": "string",
          "name": "_newRiskOracleUrl",
          "type": "string"
        }
      ],
      "name": "setRiskOracleUrl",
      "outputs": [],
      "stateMutability": "nonpayable",
      "type": "function"
    },
    {
      "inputs": [
        {
          "internalType": "address",
          "name": "newOwner",
          "type": "address"
        }
      ],
      "name": "transferOwnership",
      "outputs": [],
      "stateMutability": "nonpayable",
      "type": "function"
    },
    {
      "inputs": [],
      "name": "unpause",
      "outputs": [],
      "stateMutability": "nonpayable",
      "type": "function"
    },
    {
      "inputs": [
        {
          "internalType": "uint256",
          "name": "amount",
          "type": "uint256"
        }
      ],
      "name": "withdraw",
      "outputs": [],
      "stateMutability": "nonpayable",
      "type": "function"
    },
    {
      "stateMutability": "payable",
      "type": "receive"
    }
  ],
  "bytecode": "0x60a06040523480156200001157600080fd5b506040516200182838038062001828833981016040819052620000349162000234565b33806200005c57604051631e4fbdf760e01b8152600060048201526024015b60405180910390fd5b6200006781620001ce565b506001600160a01b038316620000d35760405162461bcd60e51b815260206004820152602a60248201527f536869656c6465645661756c743a20496e76616c6964205269736b204f7261636044820152696c65206164647265737360b01b606482015260840162000053565b60648211156200013a5760405162461bcd60e51b815260206004820152602b60248201527f536869656c6465645661756c743a204d6178207269736b2073636f7265206d7560448201526a0737420626520302d3130360ac1b606482015260840162000053565b6000815111620001a45760405162461bcd60e51b815260206004820152602e60248201527f536869656c6465645661756c743a205269736b204f7261636c652055524c206360448201526d616e6e6f7420626520656d70747960901b606482015260840162000053565b6001600160a01b03831660805260018290556002620001c48282620003c2565b505050506200048e565b600080546001600160a01b038381166001600160a01b0319831681178455604051919092169283917f8be0079c531659141344cd1fd0a4f28419497f9722a3daafe3b4186f6b6457e09190a35050565b634e487b7160e01b600052604160045260246000fd5b6000806000606084860312156200024a57600080fd5b83516001600160a01b03811681146200026257600080fd5b60208581015160408701519295509350906001600160401b03808211156200028957600080fd5b818701915087601f8301126200029e57600080fd5b815181811115620002b357620002b36200021e565b604051601f8201601f19908116603f01168101908382118183101715620002de57620002de6200021e565b816040528281528a86848701011115620002f757600080fd5b600093505b828410156200031b5784840186015181850187015292850192620002fc565b60008684830101528096505050505050509250925092565b600181811c908216806200034857607f821691505b6020821081036200036957634e487b7160e01b600052602260045260246000fd5b50919050565b601f821115620003bd57600081815260208120601f850160051c81016020861015620003985750805b601f850160051c820191505b81811015620003b957828155600101620003a4565b5050505b505050565b81516001600160401b03811115620003de57620003de6200021e565b620003f681620003ef845462000333565b846200036f565b602080601f8311600181146200042e5760008415620004155750858301515b600019600386901b1c1916600185901b178555620003b9565b600085815260208120601f198616915b828110156200045f578886015182559484019460019091019084016200043e565b50858210156200047e5787850151600019600388901b60f8161c191681555b5050505050600190811b01905550565b60805161137e620004aa60003960006102c4015261137e6000f3fe6080604052600436106101025760003560e01c8063715018a611610095578063d0e30db011610064578063d0e30db0146102aa578063d151c50e146102b2578063e37bf765146102e6578063f2fde38b146102f9578063fb94f3b61461031957600080fd5b8063715018a61461022c5780638456cb59146102415780638da5cb5b14610256578063bcea8abd1461028857600080fd5b80633f4ba83a116100d15780633f4ba83a146101ac5780635c975abb146101c15780635cd823c7146101ec5780636ff1c9bc1461020c57600080fd5b806313f190d714610116578063268649b01461013f57806327e235e31461015f5780632e1a7d4d1461018c57600080fd5b366101115761010f61033c565b005b600080fd5b34801561012257600080fd5b5061012c60015481565b6040519081526020015b60405180910390f35b34801561014b57600080fd5b5061010f61015a366004610ecc565b61041a565b34801561016b57600080fd5b5061012c61017a366004610f01565b60036020526000908152604090205481565b34801561019857600080fd5b5061010f6101a7366004610ecc565b6104c8565b3480156101b857600080fd5b5061010f6106b4565b3480156101cd57600080fd5b50600054600160a01b900460ff165b6040519015158152602001610136565b3480156101f857600080fd5b5061010f610207366004610faf565b6106c6565b34801561021857600080fd5b5061010f610227366004610f01565b610780565b34801561023857600080fd5b5061010f610941565b34801561024d57600080fd5b5061010f610953565b34801561026257600080fd5b506000546001600160a01b03165b6040516001600160a01b039091168152602001610136565b34801561029457600080fd5b5061029d610963565b6040516101369190611050565b61010f61033c565b3480156102be57600080fd5b506102707f000000000000000000000000000000000000000000000000000000000000000081565b6101dc6102f4366004611083565b6109f1565b34801561030557600080fd5b5061010f610314366004610f01565b610d24565b34801561032557600080fd5b506101dc610334366004610ecc565b600154101590565b610344610d62565b600034116103bf5760405162461bcd60e51b815260206004820152603760248201527f536869656c6465645661756c743a204465706f73697420616d6f756e74206d7560448201527f73742062652067726561746572207468616e207a65726f00000000000000000060648201526084015b60405180910390fd5b33600090815260036020526040812080543492906103de908490611121565b909155505060405134815233907f2da466a7b24304f47e87fa2e1e5a81b9831ce54fec19055ce277ca2f39ba42c49060200160405180910390a2565b610422610d8d565b60648111156104875760405162461bcd60e51b815260206004820152602b60248201527f536869656c6465645661756c743a204d6178207269736b2073636f7265206d7560448201526a0737420626520302d3130360ac1b60648201526084016103b6565b60015460408051918252602082018390527f015a68c1f5ec022aeaf8ac7f82f4cf1e164670fdd209044bb5649f359021dd40910160405180910390a1600155565b6104d0610d62565b600081116105465760405162461bcd60e51b815260206004820152603860248201527f536869656c6465645661756c743a20576974686472617720616d6f756e74206d60448201527f7573742062652067726561746572207468616e207a65726f000000000000000060648201526084016103b6565b336000908152600360205260409020548111156105b15760405162461bcd60e51b815260206004820152602360248201527f536869656c6465645661756c743a20496e73756666696369656e742062616c616044820152626e636560e81b60648201526084016103b6565b33600090815260036020526040812080548392906105d090849061113a565b9091555050604051600090339083908381818185875af1925050503d8060008114610617576040519150601f19603f3d011682016040523d82523d6000602084013e61061c565b606091505b505090508061067b5760405162461bcd60e51b815260206004820152602560248201527f536869656c6465645661756c743a204661696c656420746f2077697468647261604482015264772043524f60d81b60648201526084016103b6565b60405182815233907f7084f5476618d8e60b11ef0d7d3f06914655adb8793e28ff7f018d4c76d505d59060200160405180910390a25050565b6106bc610d8d565b6106c4610dba565b565b6106ce610d8d565b60008151116107365760405162461bcd60e51b815260206004820152602e60248201527f536869656c6465645661756c743a205269736b204f7261636c652055524c206360448201526d616e6e6f7420626520656d70747960901b60648201526084016103b6565b7f8c06cc70107df11b8e3993bc59a34214cbc77692686a108984f61982c9d0feff600282604051610768929190611187565b60405180910390a1600261077c828261126c565b5050565b610788610d8d565b6001600160a01b038116600090815260036020526040902054806108145760405162461bcd60e51b815260206004820152603b60248201527f536869656c6465645661756c743a204e6f2066756e647320746f20656d65726760448201527f656e637920776974686472617720666f7220746869732075736572000000000060648201526084016103b6565b6001600160a01b03821660009081526003602052604081208190556108416000546001600160a01b031690565b6001600160a01b03168260405160006040518083038185875af1925050503d806000811461088b576040519150601f19603f3d011682016040523d82523d6000602084013e610890565b606091505b50509050806108f95760405162461bcd60e51b815260206004820152602f60248201527f536869656c6465645661756c743a204661696c656420746f20656d657267656e60448201526e63792077697468647261772043524f60881b60648201526084016103b6565b826001600160a01b03167f2e39961a70a10f4d46383948095ac2752b3ee642a7c76aa827410aaff08c2e518360405161093491815260200190565b60405180910390a2505050565b610949610d8d565b6106c46000610e0f565b61095b610d8d565b6106c4610e5f565b600280546109709061114d565b80601f016020809104026020016040519081016040528092919081815260200182805461099c9061114d565b80156109e95780601f106109be576101008083540402835291602001916109e9565b820191906000526020600020905b8154815290600101906020018083116109cc57829003601f168201915b505050505081565b60006109fb610d62565b6001600160a01b038616610a5f5760405162461bcd60e51b815260206004820152602560248201527f536869656c6465645661756c743a20496e76616c696420746172676574206164604482015264647265737360d81b60648201526084016103b6565b33600090815260036020526040902054841115610ad45760405162461bcd60e51b815260206004820152602d60248201527f536869656c6465645661756c743a20496e73756666696369656e742062616c6160448201526c6e636520666f722076616c756560981b60648201526084016103b6565b6064831115610b3f5760405162461bcd60e51b815260206004820152603160248201527f536869656c6465645661756c743a20496e76616c6964207269736b2073636f726044820152706520286d75737420626520302d3130302960781b60648201526084016103b6565b600154831115610be857856001600160a01b0316336001600160a01b03167f9dc17cb1f159007b508bb3ae36def7eef1c3bb6db8d5b1de9af9c5b912b9afae85604051610bd8918152604060208201819052602c908201527f5269736b2073636f72652065786365656473206d6178696d756d20616c6c6f7760608201526b1959081d1a1c995cda1bdb1960a21b608082015260a00190565b60405180910390a3506000610d1b565b8315610c13573360009081526003602052604081208054869290610c0d90849061113a565b90915550505b6000866001600160a01b03168587604051610c2e919061132c565b60006040518083038185875af1925050503d8060008114610c6b576040519150601f19603f3d011682016040523d82523d6000602084013e610c70565b606091505b5050905080610cd55760405162461bcd60e51b815260206004820152602b60248201527f536869656c6465645661756c743a205472616e73616374696f6e20657865637560448201526a1d1a5bdb8819985a5b195960aa1b60648201526084016103b6565b6040518481526001600160a01b0388169033907f12ab3997585408ea3e23379b924d0b118c46f6b388a7a0e3584d5f27d70a80e59060200160405180910390a360019150505b95945050505050565b610d2c610d8d565b6001600160a01b038116610d5657604051631e4fbdf760e01b8152600060048201526024016103b6565b610d5f81610e0f565b50565b600054600160a01b900460ff16156106c45760405163d93c066560e01b815260040160405180910390fd5b6000546001600160a01b031633146106c45760405163118cdaa760e01b81523360048201526024016103b6565b610dc2610ea2565b6000805460ff60a01b191690557f5db9ee0a495bf2e6ff9c91a7834c1ba4fdd244a5e8aa4e537bd38aeae4b073aa335b6040516001600160a01b03909116815260200160405180910390a1565b600080546001600160a01b038381166001600160a01b0319831681178455604051919092169283917f8be0079c531659141344cd1fd0a4f28419497f9722a3daafe3b4186f6b6457e09190a35050565b610e67610d62565b6000805460ff60a01b1916600160a01b1790557f62e78cea01bee320cd4e420270b5ea74000d11b0c9f74754ebdbfc544b05a258610df23390565b600054600160a01b900460ff166106c457604051638dfc202b60e01b815260040160405180910390fd5b600060208284031215610ede57600080fd5b5035919050565b80356001600160a01b0381168114610efc57600080fd5b919050565b600060208284031215610f1357600080fd5b610f1c82610ee5565b9392505050565b634e487b7160e01b600052604160045260246000fd5b600067ffffffffffffffff80841115610f5457610f54610f23565b604051601f8501601f19908116603f01168101908282118183101715610f7c57610f7c610f23565b81604052809350858152868686011115610f9557600080fd5b858560208301376000602087830101525050509392505050565b600060208284031215610fc157600080fd5b813567ffffffffffffffff811115610fd857600080fd5b8201601f81018413610fe957600080fd5b610ff884823560208401610f39565b949350505050565b60005b8381101561101b578181015183820152602001611003565b50506000910152565b6000815180845261103c816020860160208601611000565b601f01601f19169290920160200192915050565b602081526000610f1c6020830184611024565b600082601f83011261107457600080fd5b610f1c83833560208501610f39565b600080600080600060a0868803121561109b57600080fd5b6110a486610ee5565b9450602086013567ffffffffffffffff808211156110c157600080fd5b6110cd89838a01611063565b9550604088013594506060880135935060808801359150808211156110f157600080fd5b506110fe88828901611063565b9150509295509295909350565b634e487b7160e01b600052601160045260246000fd5b808201808211156111345761113461110b565b92915050565b818103818111156111345761113461110b565b600181811c9082168061116157607f821691505b60208210810361118157634e487b7160e01b600052602260045260246000fd5b50919050565b6040815260008084546111998161114d565b80604086015260606001808416600081146111bb57600181146111d557611206565b60ff1985168884015283151560051b880183019550611206565b8960005260208060002060005b868110156111fd5781548b82018701529084019082016111e2565b8a018501975050505b50505050508281036020840152610d1b8185611024565b601f82111561126757600081815260208120601f850160051c810160208610156112445750805b601f850160051c820191505b8181101561126357828155600101611250565b5050505b505050565b815167ffffffffffffffff81111561128657611286610f23565b61129a81611294845461114d565b8461121d565b602080601f8311600181146112cf57600084156112b75750858301515b600019600386901b1c1916600185901b178555611263565b600085815260208120601f198616915b828110156112fe578886015182559484019460019091019084016112df565b508582101561131c5787850151600019600388901b60f8161c191681555b5050505050600190811b01905550565b6000825161133e818460208701611000565b919091019291505056fea26469706673582212203be0855785911c38d9ee2d73e1f334ecc4fe64afd4d662b409a9c2c43dde0bcb64736f6c63430008140033",
  "linkReferences": {},
  "deployedLinkReferences": {}
}